:100000000C9468010C9422060C94F2050C94900157
:100010000C9490010C9490010C9490010C9490011C
:100020000C9490010C9490010C9490010C9490010C
:100030000C9490010C9452060C9490010C94900135
:100040000C94A8050C9490010C9426040C940004C4
:100050000C9490010C9490010C9490010C949001DC
:100060000C9484060C94900112224B218523852345
:10007000852385230D2185238523852385238523BA
:100080007121E7208523972185235823084AD73BF0
:100090003BCE016E84BCBFFDC12F3D6C74319ABD57
:1000A00056833DDA3D00C77F11BED9E4BB4C3E917B
:1000B0006BAAAABE000000803F07634236B79BD8F8
:1000C000A71A39685618AEBAAB558C1D3CB7CC5739
:1000D00063BD6DEDFD753EF6177231BF0000008007
:1000E0003F08000000BE922449123EABAAAA2ABED5
:1000F000CDCCCC4C3E00000080BEABAAAAAA3E00EC
:10010000000000BF000000803F0000000000084128
:1001100078D3BB4387D1133D190E3CC3BD4282AD9A
:100120002B3E68EC8276BED98FE1A93E4C80EFFF72
:10013000BE01C4FF7F3F0000000000004E414E4959
:100140004E495459494E46CDCCCC3D0AD7233C1795
:10015000B7D13877CC2B329595E6241FB14F0A00E2
:100160000020410000C84200401C4620BCBE4CCAD2
:100170001B0E5AAEC59D7400407A10F35A00A0724F
:100180004E18090010A5D4E80000E87648170000D2
:10019000E40B54020000CA9A3B000000E1F50500A0
:1001A0000080969800000040420F000000A08601E9
:1001B000000000102700000000E8030000000064B9
:1001C00000000000000A0000000000010000000024
:1001D000002C76D888DC674F0823DFC1DFAE59E1F9
:1001E000B1B796E5E3E453C63AE651997696E8E668
:1001F000C28426EB898C9B62ED407C6FFCEFBC9C3B
:100200009F40F2BAA56FA5F490055A2AF75C936B4C
:100210006CF9676DC11BFCE0E40D47FEF520E6B507
:1002200000D0ED902E0300943577050080841E08E1
:100230000000204E0A000000C80C333333330F98FF
:100240006E12831141EF8D2114893BE65516CFFEC6
:10025000E6DB18D1844B381BF77C1D901DA4BBE452
:1002600024203284725E228100C9F124ECA1E53D94
:100270002700000000240027002A000102040810C3
:10028000204080010204081020010204081020040C
:10029000040404040404040202020202020303032D
:1002A00003030300000000250028002B00000000CD
:1002B00000230026002900000000080002010000C1
:1002C000030407000000000000000000CC25A22568
:1002D00011241FBECFEFD8E0DEBFCDBF12E0A0E0FB
:1002E000B1E0E8E9FCE602C005900D92AE37B10737
:1002F000D9F726E0AEE7B2E001C01D92A439B207FB
:10030000E1F711E0C7E6D1E004C02197FE010E94A9
:100310002034C636D107C9F70E94A4190C943F3681
:100320000C940000FC01538D448D252F30E0842F68
:1003300090E0821B930B541710F0CF96089501970D
:100340000895FC01918D828D981761F0828DDF01F7
:10035000A80FB11D5D968C91928D9F5F9F73928FB8
:1003600090E008958FEF9FEF0895FC01918D828DAD
:10037000981731F0828DE80FF11D858D90E008957A
:100380008FEF9FEF0895FC01918D228D892F90E0D2
:10039000805C9F4F821B91098F73992708958FE589
:1003A00093E00E94C30121E0892B09F420E0822F11
:1003B0000895FC01848DDF01A80FB11DA35ABF4F22
:1003C0002C91848D90E001968F739927848FA68954
:1003D000B7892C93A089B1898C91837080648C93A8
:1003E000938D848D981306C00288F389E02D808157
:1003F0008F7D80830895EF92FF920F931F93CF9389
:10040000DF93EC0181E0888F9B8D8C8D981305C064
:10041000E889F989808185FD26C0F62E0B8D10E0D4
:100420000F5F1F4F0F731127E02E8C8DE8120CC049
:100430000FB607FCFACFE889F989808185FFF5CFEF
:10044000CE010E94D901F1CF8B8DFE01E80FF11D85
:10045000E35AFF4FF0829FB7F8940B8FEA89FB892C
:10046000808180620AC09FB7F894EE89FF8960831B
:10047000E889F98980818370806480839FBF81E0EF
:1004800090E0DF91CF911F910F91FF90EF90089531
:10049000CF93DF93EC01888D8823C9F0EA89FB892B
:1004A000808185FD05C0A889B9898C9186FD0FC022
:1004B0000FB607FCF5CF808185FFF2CFA889B989F7
:1004C0008C9185FFEDCFCE010E94D901E7CFDF915E
:1004D000CF91089580E090E0892B29F00E94CF0110
:1004E00081110C9400000895833081F028F481304C
:1004F00099F08230A1F008958730A9F08830B9F0E2
:100500008430D1F4809180008F7D03C08091800081
:100510008F7780938000089584B58F7702C084B56B
:100520008F7D84BD08958091B0008F7703C0809146
:10053000B0008F7D8093B00008953FB7F89480910C
:100540000E0390910F03A0911003B091110326B5F3
:10055000A89B05C02F3F19F00196A11DB11D3FBFFB
:10056000BA2FA92F982F8827820F911DA11DB11D89
:10057000BC01CD0142E0660F771F881F991F4A9585
:10058000D1F70895CF92DF92EF92FF920F931F93CE
:10059000CF93DF93EC01C98CDA8CEB8CFC8C0E943E
:1005A0009D02698F7A8F8B8F9C8F898D9A8DAB8DF1
:1005B000BC8D8C199D09AE09BF094E855F85688980
:1005C0007989481759076A077B0710F4188E4EC0BF
:1005D000388D2B89321708F046C0288DEC89FD89AB
:1005E00034E0239FE00DF11D112480839183A283C9
:1005F000B3834A815B816C817D810A851B852C8553
:100600003D856A017B01C01AD10AE20AF30A8C1502
:100610009D05AE05BF0538F1CE80DF80E884F98402
:100620000C0D1D1D2E1D3F1D081719072A073B071E
:10063000D0F0288DEE89FF8934E0239FE00DF11D75
:10064000112484179507A607B70748F0AC01BD0130
:10065000C816D906EA06FB0610F4B701A6014083C6
:10066000518362837383888D8F5F888FDF91CF91F1
:100670001F910F91FF90EF90DF90CF90089585ED3F
:100680008093BC008091BC0084FDFCCF10923803A5
:1006900008954091E602262F30E0240F311D2132CB
:1006A0003105DCF4209138032430C9F4FC0180E0EA
:1006B00090E0861758F43091E6022191DC01AA53AC
:1006C000BD4FA30FB11D2C930196F3CF8091E6028D
:1006D000680F6093E60280E0089581E0089582E06B
:1006E0000895089508950895E0913A03809139039B
:1006F000E81730F4F0E0E55CFC4F808190E008956D
:100700008FEF9FEF089590913A03809139039817E6
:1007100050F4E92FF0E0E55CFC4F208130E09F5F72
:1007200090933A0302C02FEF3FEFC90108958091E3
:10073000390390E020913A03821B91090895CF92EA
:10074000DF92EF92FF920F931F93CF93DF937C0181
:10075000CB018A0120915E03222389F0EB016B011A
:10076000C40ED51ECC15DD0569F06991D701ED9158
:10077000FC910190F081E02DC7010995F3CF642F22
:100780000E944903C801DF91CF911F910F91FF9003
:10079000EF90DF90CF900895CF93DF931F92CDB766
:1007A000DEB7698320915E032223D1F020915B03A1
:1007B000203240F021E030E0FC013383228380E0EE
:1007C00090E015C080915C03E82FF0E0EA55FD4F02
:1007D000998190838F5F80935C0380935B0305C056
:1007E00061E0CE0101960E94490381E090E00F9004
:1007F000DF91CF91089580E090E008950E942A361D
:100800001F920F920FB60F9211242F933F934F9385
:100810005F936F937F938F939F93AF93BF93EF9368
:10082000FF938FE593E00E94D901FF91EF91BF9173
:10083000AF919F918F917F916F915F914F913F9178
:100840002F910F900FBE0F901F9018951F920F922F
:100850000FB60F9211242F938F939F93EF93FF93D3
:10086000E0916F03F09170038081E0917503F09146
:10087000760382FD12C09081809178038F5F8F7321
:1008800020917903821751F0E0917803F0E0E15A6A
:10089000FC4F958F8093780301C08081FF91EF9189
:1008A0009F918F912F910F900FBE0F901F901895D1
:1008B000CF93DF93282F30E0F901E954FD4F849165
:1008C000F901E558FD4FD491F901E157FD4FC4916D
:1008D000CC2391F081110E947402EC2FF0E0EE0F16
:1008E000FF1FE355FD4FA591B491EC91ED2381E0FD
:1008F00090E021F480E002C080E090E0DF91CF91B1
:1009000008951F93CF93DF93282F30E0F901E95426
:10091000FD4F8491F901E558FD4FD491F901E1575C
:10092000FD4FC491CC23C1F0162F81110E94740297
:10093000EC2FF0E0EE0FFF1FED55FD4FA591B491A8
:100940009FB7F894111104C08C91D095D82302C0A0
:10095000EC91DE2BDC939FBFDF91CF911F91089527
:10096000CF93DF9390E0FC01E558FD4F2491FC010B
:10097000E157FD4F8491882361F190E0880F991F22
:10098000FC01EF58FD4FC591D491FC01ED55FD4F91
:10099000A591B491611109C09FB7F8948881209501
:1009A00082238883EC912E230BC0623061F49FB7C1
:1009B000F8948881322F309583238883EC912E2BF5
:1009C0002C939FBF06C08FB7F894E8812E2B288305
:1009D0008FBFDF91CF9108951F93CF93DF93182F8F
:1009E000EB0161E00E94B004209711F460E004C0C4
:1009F000CF3FD10539F461E0812FDF91CF911F9175
:100A00000C948104E12FF0E0E954FD4FE491E330D0
:100A1000F9F048F4E130B9F0E230A1F584B5806234
:100A200084BDC8BD34C0E730E9F0E83019F1E430E6
:100A300049F580918000806280938000D0938B0084
:100A4000C0938A0024C084B5806884BDC7BD1FC020
:100A500080918000806880938000D0938900C0934B
:100A6000880015C08091B00080688093B000C0936A
:100A7000B3000DC08091B00080628093B000C0933D
:100A8000B40005C0C038D1050CF0B5CFAFCFDF91B1
:100A9000CF911F9108958E3008F08E50877080643A
:100AA00080937C0080917A00806480937A008091AA
:100AB0007A0086FDFCCF809178002091790090E04B
:100AC000922B08958F929F92AF92BF92CF92DF9216
:100AD000EF92FF926B017C010E949D024B015C0131
:100AE000C114D104E104F104F1F00E949D02DC0183
:100AF000CB0188199909AA09BB09883E9340A10531
:100B0000B10570F321E0C21AD108E108F10888EEBE
:100B1000880E83E0981EA11CB11CC114D104E1040D
:100B2000F10419F7DDCFFF90EF90DF90CF90BF90E9
:100B3000AF909F908F9008952FB7F89460910A031B
:100B400070910B0380910C0390910D032FBF0895BA
:100B50001F920F920FB60F9211242F933F938F93F2
:100B60009F93AF93BF9380910A0390910B03A09141
:100B70000C03B0910D033091090323E0230F2D37AF
:100B800020F40196A11DB11D05C026E8230F029691
:100B9000A11DB11D2093090380930A0390930B03B9
:100BA000A0930C03B0930D0380910E0390910F035B
:100BB000A0911003B09111030196A11DB11D809366
:100BC0000E0390930F03A0931003B0931103BF91F2
:100BD000AF919F918F913F912F910F900FBE0F90EA
:100BE0001F9018951F920F920FB60F9211242F93FA
:100BF0003F934F935F936F937F938F939F93AF93A5
:100C0000BF93EF93FF938091FE039091FF030097B2
:100C100041F0DC01ED91FC910190F081E02D61E06B
:100C20000995FF91EF91BF91AF919F918F917F9126
:100C30006F915F914F913F912F910F900FBE0F9049
:100C40001F9018951F920F920FB60F9211242F9399
:100C50003F934F935F936F937F938F939F93AF9344
:100C6000BF93EF93FF938091FC039091FD03009756
:100C700041F0DC01ED91FC910190F081E02D60E00C
:100C80000995FF91EF91BF91AF919F918F917F91C6
:100C90006F915F914F913F912F910F900FBE0F90E9
:100CA0001F9018951F920F920FB60F9211242F9339
:100CB0003F934F935F936F937F938F939F93AF93E4
:100CC000BF93EF93FF93E0918202F0918302099525
:100CD000FF91EF91BF91AF919F918F917F916F9114
:100CE0005F914F913F912F910F900FBE0F901F90EA
:100CF000189508958EBD00000DB407FEFDCF8EB58A
:100D000008958CBD9DBD08951F920F920FB60F924E
:100D100011242F933F934F935F936F937F938F9300
:100D20009F93AF93BF93EF93FF938091B900887F18
:100D3000803609F49CC068F5883209F45BC090F4F1
:100D4000803109F454C038F4882309F4F6C088309F
:100D500009F44DC0F6C0883109F44CC0803209F462
:100D60005DC0EFC0803409F468C048F4803309F4F2
:100D700055C0883309F0E5C080933603D8C080356C
:100D800009F44FC0883509F45DC0883409F0D9C032
:100D9000D6C0883909F4C7C0A8F4883709F467C0F9
:100DA00038F4883609F463C0803709F460C0C9C0DC
:100DB000883809F4B8C0803909F45FC0803809F078
:100DC000C0C05BC0803B09F486C038F4803A09F4A7
:100DD00066C0883A09F47FC0B4C0803C09F4A7C05B
:100DE000883C09F4A4C0883B09F48AC0AAC0809159
:100DF000330310C09091350380913403981770F538
:100E0000E091350381E08E0F80933503F0E0EE5ED4
:100E1000FC4F80818093BB0085EC86C080933603B5
:100E20008EC0E091350381E08E0F80933503809171
:100E3000BB00F0E0EE5EFC4F808390913503809123
:100E400034036EC0E091350381E08E0F809335034B
:100E50008091BB00F0E0EE5EFC4F80838091370311
:100E600081116DC081E08093320384EA61C083E028
:100E70008093380310920803CFCF8091080380320B
:100E800008F051C0E091080381E08E0F80930803C1
:100E90008091BB00F0E0E851FD4F8083BDCF85EC31
:100EA0008093BC001092380380910803803230F4A4
:100EB000E0910803F0E0E851FD4F108260910803D3
:100EC00070E0E0917E02F0917F0288EE92E0099559
:100ED0001092080336C084E0809338031092E70232
:100EE0001092E602E0918002F091810209958091D2
:100EF000E602811105C081E08093E6021092C602ED
:100F0000E091E70281E08E0F8093E702F0E0EA5380
:100F1000FD4F80818093BB009091E7028091E602B3
:100F2000981708F479CF85E88093BC000AC085EC57
:100F30008093BC001092380304C0109236030E94C4
:100F40003F03FF91EF91BF91AF919F918F917F915F
:100F50006F915F914F913F912F910F900FBE0F9026
:100F60001F90189530915B03313208F04AC0809190
:100F700038038111FCCF90915D0322E02093380368
:100F8000609337032FEF209336031092350330938D
:100F90003403E6EAF2E0A2E1B3E020E0321721F008
:100FA00041914D932F5FFACF109233032091330379
:100FB000990F922B9093330390913203913061F407
:100FC00010923203909133039093BB009091BC0038
:100FD00093FDF8CF95EC01C095EE9093BC009091F5
:100FE00038039230E1F3909136039F3F79F080917E
:100FF0003603803241F080913603803331F084E053
:1010000005C081E003C082E001C083E010925C0370
:1010100010925B0310925E030895CF93DF93EC016F
:101020008E819F818E3091051CF00E944B0509C076
:101030000E945804892B19F080E094E002C080E0FF
:1010400090E04C815D81481759074CF08A859B855B
:10105000892B99F40E949C057B876A870EC020E04B
:1010600034E0241B350B8217930734F01B861A8655
:101070001986188680E002C002C081E090E0DF910E
:10108000CF9108954F925F926F927F928F929F922D
:10109000AF92BF92CF92DF92EF92FF920F931F9386
:1010A000CF93DF930E9412130E949D028090F90457
:1010B0009090FA04A090FB04B090FC048092A202ED
:1010C0009092A302A092A402B092A5020E949D0257
:1010D0006091ED047091EE048091EF049091F00422
:1010E000C090F104D090F204E090F304F090F40486
:1010F0009B01AC010E944F2F2B013C01A7019601DF
:10110000C701B6010E944F2F9B01AC01C301B20180
:101110000E94AB300E94B6329B01AC016091E904A1
:101120007091EA048091EB049091EC040E944631A6
:101130000E9417316B017C010E949D02C9E3D4E03B
:1011400009A51AA52BA53CA5DC01CB01801B910BA1
:10115000A20BB30B8DA79EA7AFA7B8AB0E949D02B1
:1011600069A77AA78BA79CA76DA57EA58FA598A92F
:101170000E94EE2EA50194010E944F2F20E034E240
:1011800044E759E40E944631288139814A815B81D4
:101190000E94AB304B015C01CC82DD82EE82FF828B
:1011A0002C893D894E895F89C701B6010E94AA300A
:1011B0002FE832EC45EF5CE30E944F2F6B017C017E
:1011C0002CEE31E548E75FE3688579858A859B8564
:1011D0000E944F2F9B01AC01C701B6010E94AB30AA
:1011E0006B017C01688779878A879B872EEE3CE7B5
:1011F0004FE75FE3C501B4010E944F2F4B015C0133
:101200002FE632E143E05BE3C701B6010E944F2FB6
:101210009B01AC01C501B4010E94AB3068837983A6
:101220008A839B83DF91CF911F910F91FF90EF9065
:10123000DF90CF90BF90AF909F908F907F906F90F6
:101240005F904F9008954F925F926F927F928F922E
:101250009F92AF92BF92CF92DF92EF92FF920F9345
:101260001F93CF93DF93CDB7DEB72D970FB6F894CA
:10127000DEBF0FBECDBF8091A10281110DC381E001
:101280008093A10278940E949D0280919F02909188
:10129000A00201969093A00280939F0280919304F4
:1012A0000E9458049093A00480939F042091A1046D
:1012B0003091A2048217930709F468C00E949D022E
:1012C0000091A3041091A4042091A5043091A604D8
:1012D000601B710B820B930B0E94EE2E9B01AC01E5
:1012E00060E074E284E799E40E94463160939B04D5
:1012F00070939C0480939D0490939E048091950428
:101300000E94580420919F043091A00440919704BA
:10131000509198046091990470919A0482179307F0
:1013200069F04F5F5F4F6F4F7F4F4093970450932B
:1013300098046093990470939A041DC04150510918
:10134000610971094093970450939804609399043C
:1013500070939A0480919B0490919C04A0919D04A9
:10136000B0919E04B05880939B0490939C04A093EA
:101370009D04B0939E040E949D026093A304709309
:10138000A4048093A5049093A60416C023E333E33A
:1013900043E75FE360919B0470919C0480919D04FE
:1013A00090919E040E944F2F60939B0470939C0425
:1013B00080939D0490939E0480919F049091A0043B
:1013C0009093A2048093A10480910001882309F4E2
:1013D0006DC10E9442082091490430914A04409115
:1013E0004B0450914C046091390470913A048091FF
:1013F0003B0490913C040E94AA3021EE3EE245E677
:1014000052E40E944F2F69837A838B839C830E94CE
:101410009D027B018C0120E030E0A9016D83FE82FA
:101420000F83188729873A874B875C879B01A80120
:1014300060E070E080E090E0A0902D04B0902E0479
:10144000C0902F04D0903004E0903104F09032042A
:1014500000913304109134040E9426340E94EE312E
:1014600020E030E04AE754E40E94463160933504BE
:101470007093360480933704909338040E949D0241
:101480007B018C0120E030E0A9016D83FE820F8397
:10149000188729873A874B875C8760932D04F092E1
:1014A0002E0400932F0410933004109231041092F4
:1014B0003204109233041092340409811A812B8172
:1014C0003C8100931D0410931E0420931F0430934D
:1014D0002004209125043091260440912704509146
:1014E000280469817A818B819C810E94AA306B01DA
:1014F0007C016093290470932A0480932B049093B9
:101500002C0480911404882321F12091350430911A
:1015100036044091370450913804C701B6010E9447
:101520004F2F20E030E040EE50E40E944631209101
:101530000C0430910D0440910E0450910F040E9450
:10154000AB3060930C0470930D0480930E04909361
:101550000F0410910C0400910D040D8700910E04EE
:101560000D8300910F044090190450901A0460906C
:101570001B0470901C0453014201B7FAB094B7F8F1
:10158000B094A5019401612F7D858D81902F0E94DB
:10159000E92E87FD11C0A3019201612F7D858D8108
:1015A000902F0E94533218164CF0812F9D85AD81EB
:1015B000B02F2C013D0102C02401350140920C04E2
:1015C00050920D0460920E0470920F0480900804F3
:1015D00090900904A0900A04B0900B04B7FAB0945C
:1015E000B7F8B09429813A814B815C8160912104E4
:1015F0007091220480912304909124040E94AA30C7
:101600009B01AC01C501B4010E944F2F209135040C
:101610003091360440913704509138040E944F2F86
:101620004B015C01209100043091010440910204BF
:1016300050910304C701B6010E944F2F6B017C013A
:101640002091040430910504409106045091070450
:10165000C301B2010E944F2F9B01AC01C701B6012B
:101660000E94AB309B01AC01C501B4010E94AB30BC
:1016700020911004309111044091120450911304F0
:101680000E944F2F29813A814B815C812093210454
:1016900030932204409323045093240460939B02CC
:1016A00070939C0280939D0290939E0280915504BA
:1016B000882309F4CAC081E080931404209149046E
:1016C00030914A0440914B0450914C04609139048C
:1016D00070913A0480913B0490913C040E94AA309E
:1016E00021EE3EE245E652E40E944F2F6B017C0161
:1016F00020E030E0A9010E945332181624F0C701FF
:10170000B601905802C0C701B60120E030E044E3C2
:1017100052E40E945332181664F4109255040E9449
:101720009C05609372047093730480937404909387
:1017300075048091010190910201892B09F4A7C0E1
:101740002091490430914A0440914B0450914C043B
:101750006091390470913A0480913B0490913C046B
:101760000E94AA3021EE3EE245E652E40E944F2F4D
:101770006B017C0120E030E0A9010E945332181671
:1017800074F020E030E044E352ECC701B6010E945F
:10179000533287FD7CC0C701B60190580DC020E0D0
:1017A00030E044E352E4C701B6010E94E92E181666
:1017B0000CF46DC0C701B6012DEC3CEC4CE45DE3CC
:1017C0000E94533287FD63C0C0909B02D0909C0260
:1017D000E0909D02F0909E0200918402109185029B
:1017E0001A8309836091880270918902072E000C88
:1017F000880B990B0E94F02E9B01AC01C701B6012A
:101800000E94AA300E94B831A80181E090E00E94B5
:10181000911800918402109185021A8309836091C6
:10182000880270918902072E000C880B990B0E9488
:10183000F02EA70196010E94AB300E94B831A8019A
:1018400082E090E00E9491181FC084EF91E00E9416
:101850002F168823C9F08091550481110DC081E0B5
:10186000809355040E949C0560936E0470936F04EE
:10187000809370049093710410920C0410920D04E4
:1018800010920E0410920F041092A10205C0109243
:1018900014040E946019F8CF2D960FB6F894DEBF9D
:1018A0000FBECDBFDF91CF911F910F91FF90EF90B1
:1018B000DF90CF90BF90AF909F908F907F906F9070
:1018C0005F904F9008950895CF92DF92EF92FF922C
:1018D0000F931F93CF93DF936C017A018B01C0E0CC
:1018E000D0E0CE15DF0581F0D8016D918D01D601D4
:1018F000ED91FC910190F081E02DC6010995892BB5
:1019000011F02196EECF7E01C701DF91CF911F919B
:101910000F91FF90EF90DF90CF9008950F931F935A
:10192000CF93DF93EC0188819981009729F02A8178
:101930003B812617370788F48B016F5F7F4F0E942A
:101940006435009761F0998388831B830A832C8117
:101950003D81232B11F4FC01108281E001C080E065
:10196000DF91CF911F910F9108951F93CF93DF9334
:10197000182F6F3739F0E62F660FFF0BEB5EFE4F27
:10198000D08101C0D0E080914506811102C0C0E045
:1019900001C0C0E80E947B1884E40E9423180E94C2
:1019A0000D180E947B18812F806C0E9423188D2FA8
:1019B0008C0F0E9423180E940D180E947B188091A2
:1019C00044060E942318DF91CF911F910C940D18AB
:1019D000CF93DF930E94A416EC018FE692E00E9461
:1019E00084168C0F9D1FDF91CF9108950F931F9345
:1019F000CF93DF9300D0CDB7DEB7082F162F80919D
:101A0000B304882319F14091B6045091B704609152
:101A1000B8047091B904CE0101960E947E198981A3
:101A20009A810E94810660E08091B2040E94810444
:101A3000802F0E947A06812F0E947A0661E08091B1
:101A4000B2040E9481040E9479062AC08091A704F2
:101A500091E090935E0380935D0310925C0310927B
:101A60005B038091A8049091A904DC01ED91FC91A5
:101A70000190F081E02D602F09958091A80490914C
:101A8000A904DC01ED91FC910190F081E02D612F22
:101A9000099561E08091A8049091A9040E94B20781
:101AA0006AE070E080E090E00E94620540EC54E063
:101AB00061E0802F0E9427128091C004181719F04E
:101AC0008FEF9FEF02C081E090E00F900F90DF91C9
:101AD000CF911F910F910895CF93DF93EC01109256
:101AE000B4048230910579F128F4009759F00197F8
:101AF000F9F055C084309105E1F180F1059709F4C2
:101B000043C04DC060910506809104060E94F60C0A
:101B100097FF03C08FEF9FEF48C060910C06809144
:101B20000B060E94F60C97FF3AC08EEF9FEF3DC068
:101B300060910606809104060E94F60C97FDEACF9C
:101B400060910D06ECCF60910706809104060E941B
:101B5000F60C97FDDFCF60910E06E1CF609108068D
:101B6000809104060E94F60C97FDD4CF60910F0679
:101B7000D6CF60910906809104060E94F60C97FD6D
:101B8000C9CF60911006CBCF60910A068091040600
:101B90000E94F60C97FDBECF60911106C0CFD09386
:101BA0003305C093320581E090E0DF91CF91089535
:101BB0000F931F93CF93DF93D82FC62F8A01609185
:101BC000370680912906682B809124060E94F60C26
:101BD00097FD21C06D2F809125060E94F60C97FD80
:101BE0001DC0609128066C2B809127060E94F60C80
:101BF00097FD17C061E070E080E090E00E94620510
:101C0000A8016C2F8091F9050E9427129093BF04C0
:101C10008093BE0408C08FEF9FEF05C08EEF9FEF4B
:101C200002C08DEF9FEFDF91CF911F910F9108952B
:101C3000CF93DF93D82FC62F60913706809124066B
:101C40000E94F60C97FD26C06D2F809125060E94FC
:101C5000F60C97FD22C06C2F809126060E94F60C90
:101C600097FD1EC0609128066160809127060E9442
:101C7000F60C97FD18C040EC54E061E08D2F0E94F7
:101C8000D80D97FD13C08091C004C81791F08AEF5A
:101C90009FEF11C08FEF9FEF0EC08EEF9FEF0BC035
:101CA0008DEF9FEF08C08CEF9FEF05C08BEF9FEF8C
:101CB00002C081E090E0DF91CF910895CF93C82FCB
:101CC0001092B40463E1809112060E94F60C97FD15
:101CD00044C060913A0680913906CA30C0F00E9433
:101CE000180E97FF03C08EEF9FEF3CC064E670E0D4
:101CF00080E090E00E94620560913B068091390689
:101D00000E94180E97FF10C08DEF9FEF2BC00E940E
:101D1000180E97FDE8CF64E670E080E090E00E9446
:101D2000620560913C06EACF64E670E080E090E0F6
:101D30000E94620540EC54E067E0809138060E9402
:101D4000D80D6C2F809112060E94F60C97FD08C0EA
:101D5000C093340581E090E005C08FEF9FEF02C093
:101D60008CEF9FEFCF910895CF92DF92EF92FF9289
:101D7000CF93DF931092B404609100068091FF0529
:101D80000E94F60C97FD6EC12AEF30E04AEF5BE34C
:101D90006091F2057091F3058091F4059091F5053D
:101DA0000E944F2F609316057093170580931805B6
:101DB00090931905109231051092300583E090E060
:101DC0000E946C0D97FD51C183E10E945E0E97FD4C
:101DD0004FC11092370510923805109239051092B4
:101DE0003A0510923B0510923C0510923D05109269
:101DF0003E0510923F051092400510924105109249
:101E00004205C0E0D0E08091350590913605C817B5
:101E1000D90708F08CC00E941213609135057091AB
:101E2000360580E090E00E94EE2E6B017C0120914F
:101E30004305309144054091450550914605609118
:101E4000F5047091F6048091F7049091F8040E94D3
:101E5000AB30A70196010E944631209137053091A1
:101E600038054091390550913A050E94AB30609396
:101E70003705709338058093390590933A05209182
:101E80004705309148054091490550914A056091B8
:101E9000F9047091FA048091FB049091FC040E9473
:101EA000AB30A70196010E94463120913B0530914D
:101EB0003C0540913D0550913E050E94AB3060933A
:101EC0003B0570933C0580933D0590933E05209122
:101ED0004B0530914C0540914D0550914E05609158
:101EE000FD047091FE048091FF04909100050E9412
:101EF000AB30A70196010E94463120913F053091F9
:101F0000400540914105509142050E94AB306093DD
:101F10003F0570934005809341059093420564E12D
:101F200070E080E090E00E94620521966CCF809185
:101F3000370590913805A0913905B0913A05809305
:101F4000430590934405A0934505B09346058091C1
:101F50003B0590913C05A0913D05B0913E058093D5
:101F6000470590934805A0934905B0934A05809191
:101F70003F0590914005A0914105B09142058093A5
:101F80004B0590934C05A0934D05B0934E05C09121
:101F90003005D09131051092B404C130D105A9F0BB
:101FA00038F0C230D105F1F0C330D10541F145C060
:101FB000609100068091FF050E94F60C97FD61C0BC
:101FC0002AEF30E04AEF5BE326C060910106809182
:101FD000FF050E94F60C97FD54C02AEF30E04AE757
:101FE0005CE319C0609102068091FF050E94F60C27
:101FF00097FD47C02AEF30E04AEF5CE30CC06091E8
:1020000003068091FF050E94F60C97FD3AC02AEF67
:1020100030E04AE75DE36091F2057091F30580914D
:10202000F4059091F5050E944F2F6093160570936B
:1020300017058093180590931905D0933105C09327
:10204000300580913205909133050E946C0D97FD0B
:1020500012C0809134050E945E0E97FD0FC081E092
:1020600090E011C08FEF9FEF0EC08EEF9FEF0BC07F
:102070008DEF9FEF08C08BEF9FEF05C08AEF9FEFBA
:1020800002C08CEF9FEFDF91CF91FF90EF90DF9038
:10209000CF9008954F925F926F927F928F929F920E
:1020A000AF92BF92CF92DF92EF92FF920F931F9366
:1020B000CF93DF932B013C016A0120E030E0A901BE
:1020C0000E94533253014201181624F0B7FAB0941B
:1020D000B7F8B094B6010D2C000C880B990B0E9438
:1020E000F02E9B01AC0160E070E080E291E40E9480
:1020F0006032A50194010E944F2F0E94B8318B01DC
:10210000E12CF12C9AE0892E912CC0914606D091B9
:102110004706AA24A394B12C20E030E0A901C30112
:10212000B2010E94E92E87FD02C0A12CB12CCE0184
:102130008A199B09E816F906F4F4CE19DF092197EC
:102140000115110531F0C801B4010E940C34682F4B
:1021500006C0E114F10411F060E101C060E08C2FD1
:102160000E94B50CC801B4010E940C348B018FEFA2
:10217000E81AF80ACACF20E030E0A901C301B20191
:102180000E94E92E87FF04C061E180E00E94B50C47
:1021900082E0C816D10421F481E08093450602C094
:1021A00010924506DF91CF911F910F91FF90EF9014
:1021B000DF90CF90BF90AF909F908F907F906F9067
:1021C0005F904F900895CF93DF93EC010E940D082C
:1021D000892B09F41C868A859B85892B41F00E94F6
:1021E0009C052A853B85621B730B798768878885E8
:1021F000998584369105A4F08C85811111C081E008
:102200008C87888199810196998388832A813B8173
:102210002817390744F481E090E09983888305C04A
:1022200080E090E002C081E090E0DF91CF910895DE
:102230000F931F930E949C0560936703709368033C
:102240008093690390936A038FE593E00E94A10154
:1022500097FF1FC00E949C050091670310916803BF
:102260002091690330916A03DC01CB01801B910B43
:10227000A20BB30B009163031091640320916503DB
:102280003091660380179107A207B307E8F28FEF3A
:102290009FEF1F910F910895EF92FF920F931F935D
:1022A000CF93DF936115710511F480E01CC04115D7
:1022B0005105C1F07B01EC018C819D818A01080FE1
:1022C000191FB801CE010E948E0C882371F328815A
:1022D00039818C819D81B701820F931F0E9438360E
:1022E0001D830C8381E0DF91CF911F910F91FF90AF
:1022F000EF900895CF93DF93EC0188819981009747
:1023000011F00E94DB34198218821D821C821B820C
:102310001A82DF91CF910895CF93DF93EC0161157D
:10232000710561F0FB0101900020E9F73197AF01E1
:10233000461B570B0E944C11811103C0CE010E9415
:102340007A11CE01DF91CF910895EF92FF920F9312
:102350001F93CF93DF93EC017B018A01BA010E94A6
:102360008E0C811104C0CE010E947A1107C01D831A
:102370000C83B701888199810E943836CE01DF91A4
:10238000CF911F910F91FF90EF900895CF93DF931E
:10239000EC016115710559F0FB0101900020E9F78E
:1023A0003197AF01461B570B0E94A51102C00E9436
:1023B0007A11CE01DF91CF910895EF92FF920F93A2
:1023C0001F93CF93DF93CDB7DEB7A1970FB6F894E5
:1023D000DEBF0FBECDBF7C01CB01BA01F701118278
:1023E000108213821282158214828E010F5F1F4F9A
:1023F00022E044E00E944D2ABC01C7010E94C611A0
:10240000A1960FB6F894DEBF0FBECDBFDF91CF917E
:102410001F910F91FF90EF900895FC0180819181B1
:102420000C94DB34FC01118210821382128215821B
:1024300014826115710551F0FB0101900020E9F74C
:102440003197AF01461B570B0C94A5110895DF92ED
:10245000EF92FF920F931F93CF93DF9300D0CDB7EE
:10246000DEB7F82E162FD42E052F8091B3048823C3
:1024700009F43FC08091B404882349F04091BA0424
:102480005091BB046091BC047091BD0408C04091A0
:10249000B6045091B7046091B8047091B904CE01AC
:1024A00001960E947E1989819A810E94810660E0CE
:1024B0008091B2040E9481048091B5048F290E940A
:1024C0007A06ED2CF02EC701810F911D8C010E159F
:1024D0001F0539F080E00E947A06D7018D937D01B7
:1024E000F6CF61E08091B2040E9481040E947906D7
:1024F0008DC08091A70491E090935E0380935D036B
:1025000010925C0310925B038091A8049091A9043F
:10251000DC01ED91FC910190F081E02D6F2D09958A
:1025200060E08091A8049091A9040E94B207809174
:1025300038038111FCCF8091A704912F113208F04C
:1025400090E221E020933803209337033FEF30934C
:10255000360310923503390F30933403209333033D
:1025600020913303880F822B8093330380913203B1
:10257000813061F410923203809133038093BB0069
:102580008091BC0083FDF8CF85EC01C085EE80937F
:10259000BC00809138038130E1F3809135038917C5
:1025A00010F490913503E2E1F3E0ABE3B3E080E0B7
:1025B000891721F021912D938F5FFACF10923A0362
:1025C0008093390390E09093AF048093AE04612F21
:1025D00070E086179707B9F4ED2CF02E8701080FED
:1025E000191FE016F10691F08091A8049091A904BA
:1025F000DC01ED91FC910284F385E02D0995F70152
:1026000081937F01EECF8FEF9FEF02C081E090E0DA
:102610000F900F90DF91CF911F910F91FF90EF904E
:10262000DF9008952F923F924F925F926F927F9228
:102630008F929F92AF92BF92CF92DF92EF92FF92D2
:102640000F931F93CF93DF93CDB7DEB76A970FB683
:10265000F894DEBF0FBECDBF81E08093B40440ECA0
:1026600054E065E18091F6050E94271297FDDCC2D7
:10267000A090C004B090C104BA24AB24BA24B09294
:10268000D604A092D504C090C204D090C304DC2428
:10269000CD24DC24D092D804C092D704E090C404A6
:1026A000F090C504FE24EF24FE24F092DA04E092B8
:1026B000D9046091C6047091C704362F272F3A833E
:1026C00029833093E8042093E7048090C804909015
:1026D000C9049824892498249092DC048092DB0415
:1026E0000091CA041091CB041027012710271093E2
:1026F000DE040093DD044091CC045091CD045427B6
:10270000452754275A8F498F5093E0044093DF04A4
:102710008091CE049091CF049C838B839093E204AC
:102720008093E1042091D0043091D1043E832D8325
:102730003093E4042093E3044091D2045091D304F5
:1027400058874F835093E6044093E5048091DC055D
:102750009091DD059A8789872091DE053091DF050C
:102760003C872B874091E0055091E1055E874D87BE
:102770004090120550901305609014057090150557
:10278000A89EB001A99E700DB89E700D1124C29E26
:10279000C001C39E900DD29E900D1124680F791F29
:1027A000E49EC001E59E900DF49E900D1124680FEB
:1027B000791F072E000C880B990B0E94F02EA301A5
:1027C00092010E944F2F2091730530917405409122
:1027D0007505509176050E94AA3020917F053091B1
:1027E000800540918105509182050E944F2F609392
:1027F000E9047093EA048093EB049093EC048091D5
:10280000E2059091E305988B8F872091E405309144
:10281000E5053A8B298B4091E6055091E7055C8BE5
:102820004B8BA89EB001A99E700DB89E700D11240F
:10283000C29EC001C39E900DD29E900D1124680FC0
:10284000791FE49EC001E59E900DF49E900D112429
:10285000680F791F072E000C880B990B0E94F02E31
:10286000A30192010E944F2F2091770530917805A6
:102870004091790550917A050E94AA3020918305F4
:102880003091840540918505509186050E944F2F17
:102890006093ED047093EE048093EF049093F00442
:1028A0008091E8059091E9059E8B8D8B2091EA053A
:1028B0003091EB05388F2F8B2090EC053090ED0593
:1028C000AC01A49EC001A59E900DB49E900D112454
:1028D000C29EB001C39E700DD29E700D1124680F70
:1028E000791FE29C9001E39C300DF29C300D112485
:1028F000620F731F072E000C880B990B0E94F02E9D
:10290000A30192010E944F2F20917B0530917C05FD
:1029100040917D0550917E050E94AA302091870547
:10292000309188054091890550918A050E944F2F6A
:102930006093F1047093F2048093F3049093F40491
:10294000C0901605D0901705E0901805F090190575
:1029500029853A85829EC001839E900D929E900D9E
:1029600011244B855C85049FB001059F700D149F59
:10297000700D1124680F791F898D9A8D4D855E85A4
:10298000849F9001859F300D949F300D1124620F1C
:10299000731F072E000C880B990B0E94F02EA701C5
:1029A00096010E944F2F209143053091440540919C
:1029B0004505509146050E94AA306093F504709336
:1029C000F6048093F7049093F8048F859889889E85
:1029D000B001899E700D989E700D112429893A8945
:1029E000029FC001039F900D129F900D1124680F4C
:1029F000791F498D5A8D2B893C89429FC001439F85
:102A0000900D529F900D1124680F791F072E000C16
:102A1000880B990B0E94F02EA70196010E944F2F60
:102A200020914705309148054091490550914A054C
:102A30000E94AA306093F9047093FA048093FB0417
:102A40009093FC044D895E89849EC001859E900D03
:102A5000949E900D11242F89388D029FB001039F01
:102A6000700D129F700D1124680F791F498D5A8DBA
:102A7000429D9001439D300D529D300D1124620FF7
:102A8000731F072E000C880B990B0E94F02EA701D4
:102A900096010E944F2F20914B0530914C0540919B
:102AA0004D0550914E050E94AA306093FD0470932D
:102AB000FE048093FF04909300052B813C81B901B3
:102AC000330F880B990B0E94F02E20911A0530913C
:102AD0001B0540911C0550911D050E944F2F209110
:102AE000C0053091C1054091C2055091C3050E94B7
:102AF000AA302091CC053091CD054091CE05509162
:102B0000CF050E944F2F60930105709302058093BB
:102B10000305909304054D815E81BA01550F880B22
:102B2000990B0E94F02E20911E0530911F054091B7
:102B30002005509121050E944F2F2091C40530910E
:102B4000C5054091C6055091C7050E94AA30209145
:102B5000D0053091D1054091D2055091D3050E9406
:102B60004F2F60930505709306058093070590939A
:102B700008052F813885B901330F880B990B0E9406
:102B8000F02E20912205309123054091240550918B
:102B900025050E944F2F2091C8053091C90540910D
:102BA000CA055091CB050E94AA302091D4053091DE
:102BB000D5054091D6055091D7050E944F2F6093BF
:102BC000090570930A0580930B0590930C05C0903E
:102BD0002A05D0902B05E0902C05F0902D05498119
:102BE0005A81BA01550F880B990B0E94F02EA7014C
:102BF00096010E94AA302091260530912705409128
:102C00002805509129050E944631A70196010E948E
:102C1000AB3060930D0570930E0580930F05909374
:102C2000100581E090E002C08FEF9FEF6A960FB62B
:102C3000F894DEBF0FBECDBFDF91CF911F910F91F2
:102C4000FF90EF90DF90CF90BF90AF909F908F90CC
:102C50007F906F905F904F903F902F900895CF920C
:102C6000DF92EF92FF92CF93DF93EC01C090390493
:102C7000D0903A04E0903B04F0903C0420E030E037
:102C8000A901C701B6010E945332181624F0F7FAC1
:102C9000F094F7F8F09422EC38EB42EB5DE3C701D7
:102CA000B6010E94533218165CF40E949C05609392
:102CB0006A0470936B0480936C0490936D041CC041
:102CC0000E949C05C0906A04D0906B04E0906C0454
:102CD000F0906D049B01AC012C193D094E095F0970
:102CE00069017A01AE01DD0F660B770B81E04C15AF
:102CF0005D056E057F0508F080E0DF91CF91FF90C4
:102D0000EF90DF90CF900895009769F0FC0101905B
:102D10000020E9F73197AF01481B590BBC018FE543
:102D200093E00C94640C80E090E00895CF93DF93DF
:102D30000E948416EC018FE692E00E9484168C0FAC
:102D40009D1FDF91CF910895FC01448155816081E1
:102D500071818FE593E00C94640CCF93DF93EC01C9
:102D6000FB0144815581608171810E944C11811168
:102D700003C0CE010E947A11CE01DF91CF91089558
:102D80000F931F93CF93DF93CDB7DEB762970FB644
:102D9000F894DEBF0FBECDBF8C01CB01F8011182CC
:102DA000108213821282158214824AE0BE016F5F84
:102DB0007F4F0E94132BBE016F5F7F4FC8010E949F
:102DC000C61162960FB6F894DEBF0FBECDBFDF917D
:102DD000CF911F910F9108952F923F924F925F9242
:102DE0006F927F928F929F92AF92BF92CF92DF921B
:102DF000EF92FF920F931F93CF93DF93CDB7DEB780
:102E0000A4970FB6F894DEBF0FBECDBF4B015C0197
:102E10009B01AC010E94FA32882319F082E792E00C
:102E20001AC075016401E894F7F82FEF3FEF4FE700
:102E30005FE7C701B6010E94FA32811110C02FEF7F
:102E40003FEF4FE75FE7C701B6010E94E92E181672
:102E500034F486E792E00E9484168C01AFC02FEF15
:102E60003FEF4FE75FE4C501B4010E9453321816EB
:102E70001CF48AE792E0EFCF2FEF3FEF4FE75FECD4
:102E8000C501B4010E94E92E87FDF3CF20E030E0B8
:102E9000A901C501B4010E94E92E87FF0BC06DE2B4
:102EA0008FE593E00E94FB016C01B7FAB094B7F88C
:102EB000B09402C0C12CD12C2AE037ED43EA5BE389
:102EC000C501B4010E94AB304B015C010E94BF31CF
:102ED0002B013C010E94EE2E9B01AC01C501B40107
:102EE0000E94AA304B015C0119A27E0181E2E80E2A
:102EF000F11CEAA2FBA2C301B2012AE030E040E0EB
:102F000050E00E94793029013A01605DF701629337
:102F10007F01232B242B252B71F7CF010E948416D0
:102F20008C016EE28FE593E00E94FB01800F911F00
:102F30008C010C0D1D1D83E0F82E9AE0292E312CFA
:102F4000412C512CFA94FF20C9F120E030E040E2FE
:102F500051E4C501B4010E944F2F4B015C010E9456
:102F6000BF319B0140E050E019A26AA07BA06CA396
:102F7000C32ED42EE52ECA01B901A20191010E94EF
:102F80007930605DF30162933F0121153105410500
:102F9000510589F7CF010E948416080F191F6CA1F3
:102FA0007C2D8D2D9E2D0E94EE2E9B01AC01C50126
:102FB000B4010E94AA304B015C01C4CF8FE692E0BD
:102FC0000E948416800F911FA4960FB6F894DEBF5E
:102FD0000FBECDBFDF91CF911F910F91FF90EF906A
:102FE000DF90CF90BF90AF909F908F907F906F9029
:102FF0005F904F903F902F900895CF92DF92EF9285
:10300000FF926A017B010E94A416C701B601FF90DE
:10301000EF90DF90CF900C94EC16CF93DF93C2E447
:10302000D6E060E08E810E94810460E08F810E9482
:10303000810461E08E810E94810461E08F81DF91D3
:10304000CF910C9481040F931F93CF93DF93D82FCC
:10305000C8E060E0809148060E948104D0FF02C071
:1030600061E001C060E0809149060E948104D5952D
:1030700061E0809148060E948104C15051F760E0F0
:10308000809148060E94810461E0809149060E9477
:10309000810461E0809148060E94810460E0809193
:1030A00049060E94B00483EC90E00197F1F780910B
:1030B00049060E9458048C0181110AC061E0809188
:1030C00049060E94B00460E0809149060E94810494
:1030D000C3ECD0E0CE010197F1F761E080914906A1
:1030E0000E94B0042197F1F7C8019927DF91CF9191
:1030F0001F910F910895CF93DF93C2E4D6E061E072
:103100008E810E94810461E08F810E94810460E0D1
:103110008F810E94810460E08E81DF91CF910C94B9
:1031200081048F929F92AF92BF92FF920F931F9351
:10313000CF93DF93EC0177FDB1C0FF24F3946115C9
:10314000710521F0640F751F77FD07C06F3F710592
:1031500031F02CF06FEF70E002C060E070E0072EFD
:10316000000C880B990B0E94F02E4B015C0120E0B3
:1031700030E040E05FE30E944F2F9B01AC0166E628
:1031800076E686E89FE30E9460329B01AC01C501B0
:10319000B4010E94AB300E94B8316F3F710519F045
:1031A00014F06FEF70E08B0177FF02C000E010E0D9
:1031B00028E431EE4AE75FE36091510470915204D4
:1031C00080915304909154040E944F2F4B015C0155
:1031D000FF2031F0B801012E000C880B990B08C0BC
:1031E00066277727601B710B072E000C880B990B45
:1031F0000E94F02E9B01AC01C501B4010E94AB30CE
:103200006093510470935204809353049093540438
:10321000CF3F8FEFD807D9F064F4229609F046C06B
:1032200060E0809160040E94810461E080915E040E
:1032300025C0C130D105A1F02297C1F560E0809191
:103240005E040E94810461E08091600417C060E028
:1032500080915C040E94810461E080915A0408C05E
:1032600060E080915A040E94810461E080915C04D6
:103270000E948104B8018091560405C00E94810417
:10328000B80180915804DF91CF911F910F91FF9069
:10329000BF90AF909F908F900C94EC0471956195C6
:1032A0007109D195C195D109F12C4CCFDF91CF9106
:1032B0001F910F91FF90BF90AF909F908F900895B6
:1032C000CF93DF93C9E3D4E060E08D8D0E94810449
:1032D00060E08F8D0E94810460E089A10E948104DA
:1032E00060E08BA10E94810460E08DA10E948104B6
:1032F00060E08FA1DF91CF910C948104CF92DF9297
:10330000EF92FF92FC01C12C92E1D92E9AE7E92EAF
:10331000F12C20E04C155D056E057F0540F4F69418
:10332000E794D794C7942F5F2630A1F727E091E068
:103330009227292F286B2695208391709183FF90E7
:10334000EF90DF90CF900895CF93DF93CDB7DEB7A6
:10335000A8970FB6F894DEBF0FBECDBF789484B5A2
:10336000826084BD84B5816084BD85B5826085BD81
:1033700085B5816085BD80916E00816080936E000F
:103380001092810080918100826080938100809101
:1033900081008160809381008091800081608093B2
:1033A00080008091B10084608093B1008091B00072
:1033B00081608093B00080917A00846080937A006D
:1033C00080917A00826080937A0080917A00816097
:1033D00080937A0080917A00806880937A001092BE
:1033E000C100E0916F03F091700382E08083E0916F
:1033F0006B03F0916C031082E0916D03F0916E030A
:1034000080E1808310927703E0917303F09174035D
:1034100086E08083E0917103F09172038081806186
:103420008083E0917103F0917203808188608083D2
:10343000E0917103F0917203808180688083E09154
:103440007103F091720380818F7D808381E591E02B
:103450000E94961680E00E944B05BC01990F880BD4
:10346000990B611571058105910511F00E94062BDC
:1034700060E08EE00E94B00460E082E00E94B00450
:1034800060E08DE00E94B00461E084E00E9481046D
:1034900061E085E00E94810486E090E090934B0615
:1034A00080934A068091B304882309F440C01092A7
:1034B000B40461E08091B2040E94B00461E08091A4
:1034C000B2040E9481041FB7F89480919602811182
:1034D00027C0E9E9F2E08491E5E8F2E09491E82F71
:1034E000F0E0EE0FFF1FEF58FD4FA591B491EC9166
:1034F000E92321F461E08AE00E94810461E08AE02E
:103500000E94B0048CB580618CBD8CB580648CBD8C
:1035100061E08DE00E94B00461E08BE00E94B004A5
:10352000809196028F5F809396021FBF4CC01092CD
:103530003A031092390310925C0310925B031092CD
:10354000380381E0809337031092320361E082E117
:103550000E94810461E083E10E9481048091B900AE
:103560008E7F8093B9008091B9008D7F8093B900E0
:1035700088E48093B80085E48093BC0081E793E001
:10358000909381028093800282E793E090937F0280
:1035900080937E022091AA043091AB044091AC0448
:1035A0005091AD0460E074E284EF90E00E947930C5
:1035B000DA01C9014097A109B109B695A795979578
:1035C00087958093B80060911C06809119060E942F
:1035D000F60C97FD4BC060912106809120060E9459
:1035E000F60C97FD46C060912206809123060E944A
:1035F000F60C97FD41C060913A06809139060E9411
:10360000180E60911B06809119060E94F60C61E06D
:1036100070E080E090E00E94620560913F0680913A
:103620003E060E94180E60911C06809119060E94A9
:10363000F60C97FD24C040EC54E061E080912F0629
:103640000E94271297FD04C08091C0048137E9F0E1
:1036500040EC54E061E080912F060E94271297FD14
:1036600011C08091C004833769F40FC00FEF1FEFC2
:1036700095C10EEF1FEF92C10DEF1FEF8FC10CEF41
:103680001FEF8CC10BEF1FEF89C160911E06809167
:103690001D060E94F60C97FF02C00C9460256091F5
:1036A000FE058091FA050E94F60C97FF02C00C946B
:1036B000282520E030E040E851E46091EE0570916B
:1036C000EF058091F0059091F1050E944F2F20E0C9
:1036D0003FEF4FEF56E40E9446316093120570931E
:1036E0001305809314059093150503E010E01093E3
:1036F0002F0500932E05609103068091FF050E941F
:10370000F60C97FF02C00C942C252AEF30E04AE714
:103710005DE36091F2057091F3058091F40590915D
:10372000F5050E944F2F609316057093170580933F
:103730001805909319051093310500933005609199
:103740000506809104060E94F60C97FF02C00C94B7
:10375000302560910C0680910B060E94F60C97FFB5
:1037600002C00C943425109233051092320560E0AB
:10377000809112060E94F60C97FF02C00C94382527
:103780001092340560912106809120060E94F60C6B
:1037900097FF02C00C943C2560912206809123067D
:1037A0000E94F60C97FF02C00C94402540EC54E0B8
:1037B00061E0809141060E94D80D97FF02C00C94F1
:1037C00044258091C004883411F00C944425609104
:1037D0003A06809139060E94180E97FF02C00C9499
:1037E000482564E670E080E090E00E946205609108
:1037F0003D06809139060E94180E97FF02C00C9476
:103800004C2564E670E080E090E00E94620540ECA8
:1038100054E063E0809140060E94D80D6091C0049E
:1038200070E080E090E00E94EE2E20E030E040E08A
:1038300053E40E94AA3020E030E040E85BE30E94BD
:103840004F2F20E030E040E85FE30E94AB3020E003
:1038500030E849E955E40E944F2F20E030EF4FEF68
:1038600056E40E94463160931A0570931B058093BD
:103870001C0590931D056091C10470E080E090E00C
:103880000E94EE2E20E030E040E053E40E94AA3097
:1038900020E030E040E85BE30E944F2F20E030E082
:1038A00040E85FE30E94AB3020E030E849E955E4AE
:1038B0000E944F2F20E030EF4FEF56E40E94463138
:1038C00060931E0570931F0580932005909321053A
:1038D0006091C20470E080E090E00E94EE2E20E053
:1038E00030E040E053E40E94AA3020E030E040E8BD
:1038F0005BE30E944F2F20E030E040E85FE30E944E
:10390000AB3020E030E849E955E40E944F2F20E039
:1039100030EF4FEF56E40E944631609322057093DA
:103920002305809324059093250560913A068091A4
:1039300039060E94180E97FF02C00C94502564E6C9
:1039400070E080E090E00E94620560913C0680910A
:1039500039060E94180E97FF02C00C94542564E6A5
:1039600070E080E090E00E94620560911C0680910A
:1039700019060E94F60C97FF02C00C94582540ECE3
:1039800054E067E0809138060E94D80D0E94B40E82
:1039900097FD02C00C945C250CEE1FEF67E571E00B
:1039A000CE0101960E941212B801110F880B990BDB
:1039B0000E94F02EAB01BC01CE0101960E94FD17C2
:1039C000CE0101960E940D121092B4046091FB0585
:1039D0008091FA050E94F60C97FD1EC06091EE05DD
:1039E0007091EF058091F0059091F1059B01AC017C
:1039F0000E94AB3020E03FEF4FEF56E40E9446318B
:103A00006093120570931305809314059093150528
:103A100010922F0510922E0583E090E00E946C0D0D
:103A20008CE59FE8A2ECBDE3809373059093740549
:103A3000A0937505B093760580E090E0A0E8BFE321
:103A400080937F0590938005A0938105B0938205B4
:103A50004AE057ED63EA7DEB409377055093780594
:103A60006093790570937A0580938305909384051C
:103A7000A0938505B093860587ED93EAA0E7BEE3A2
:103A800080937B0590937C05A0937D05B0937E0584
:103A90008AE998E3AFE7BFE38093870590938805B1
:103AA000A0938905B0938A050E94420840913D0485
:103AB00050913E0460913F0470914004CE01019604
:103AC0000E94DD114091390450913A0460913B0409
:103AD00070913C04CE0140960E94DD111B861A862F
:103AE0001D861C861F861E86688979896115710569
:103AF00031F04C895D89CE010A960E94A5116DE6D0
:103B000072E0CE010A960E948C11BE016F5F7F4F5A
:103B10000E94AD160E94E80CCE010A960E940D127A
:103B2000CE0140960E940D12CE0101960E940D1208
:103B300040913D0450913E0460913F0470914004D7
:103B40004093390450933A0460933B0470933C04CF
:103B5000CE0101960E94DD114091390450913A0442
:103B600060913B0470913C04CE0140960E94DD11AF
:103B70001B861A861D861C861F861E866889798983
:103B80006115710531F04C895D89CE010A960E945C
:103B9000A5116DE672E0CE010A960E948C11BE015D
:103BA0006F5F7F4F0E94AD160E94E80CCE010A960F
:103BB0000E940D12CE0140960E940D12CE01019678
:103BC0000E940D126FE780E00E94B50C6FE781E064
:103BD0000E94B50C6FE782E00E94B50C6FE783E0AE
:103BE0000E94B50C80E48093420680EC80934306EB
:103BF0008AE88093440664E670E080E090E00E94EA
:103C0000620580917E0690917F06A0918006B0911A
:103C1000810620E1209381001092800063E0880FEC
:103C2000991FAA1FBB1F6A95D1F7009721E0A20731
:103C3000B10520F421E02093990242C00097E8E00A
:103C4000AE07B10558F422E02093990253E0B695EF
:103C5000A795979587955A95D1F732C00097F0E4CC
:103C6000AF07B10558F423E02093990246E0B695DA
:103C7000A795979587954A95D1F722C00097A105FA
:103C800021E0B20740F424E020939902892F9A2F73
:103C9000AB2FBB2715C00097A105E4E0BE0758F481
:103CA00025E0209399022AE0B695A79597958795E8
:103CB0002A95D1F705C085E0809399028FEF9FEF99
:103CC0009093980280939702809197029091980226
:103CD0009093870080938600809199028061809301
:103CE000810083E299E0909383028093820281E0D5
:103CF00080936F0022242394312C88EE882E83E059
:103D0000982EA12CB12C412C512C9FE7692E93E4C5
:103D1000792E84E696E00E94E310892B09F4ADC069
:103D200081E090E02091010130910201232B11F0FC
:103D300080E090E0909302018093010187E596E096
:103D40000E940D08019709F098C0109200010E948E
:103D5000601942E050E068EA76EC81EB92E40E9460
:103D60004A1068EE73E080E090E00E94620582E60F
:103D700091E00E9496160E94B40E8C0163E771E0F8
:103D8000CE0101960E941212B801110F880B990BF7
:103D90000E94F02EAB01BC01CE0101960E94FD17DE
:103DA000CE0101960E940D1221EE3EE245E652E45C
:103DB00060914305709144058091450590914605B9
:103DC0000E944F2F6B017C0164E871E0CE010196E7
:103DD0000E941212B701A601CE0101960E94FD17A2
:103DE000CE0101960E940D1221EE3EE245E652E41C
:103DF00060914705709148058091490590914A0569
:103E00000E944F2F6B017C0161E971E0CE010196A8
:103E10000E941212B701A601CE0101960E94FD1761
:103E2000CE0101960E940D1221EE3EE245E652E4DB
:103E300060914B0570914C0580914D0590914E0518
:103E40000E944F2F6B017C016EE971E0CE0101965B
:103E50000E941212B701A601CE0101960E94FD1721
:103E6000CE0101960E940D126EE571E080E090E0B7
:103E70000E94620581E08093000181E796E00E9444
:103E80000D08019781F580913D0490913E04A09129
:103E90003F04B091400480934D0490934E04A0934E
:103EA0004F04B09350041092390410923A041092C7
:103EB0003B0410923C041092410410924204109270
:103EC0004304109244041092490410924A04109240
:103ED0004B0410924C0410920C0410920D0410929A
:103EE0000E0410920F0487E596E00E94E310809183
:103EF00057069091580682309105B9F083309105AC
:103F000079F1019709F05CC02091490430914A048D
:103F100040914B0450914C046091390470913A04E3
:103F200080913B0490913C0410C020914904309151
:103F30004A0440914B0450914C04609141047091AB
:103F4000420480914304909144040E94AA3021EEDF
:103F50003EE245E652E40E944F2F41E050E02EC081
:103F600080915504882351F00E949C05609372044F
:103F70007093730480937404909375048091720419
:103F800090917304A0917404B091750400916E0433
:103F900010916F042091700430917104BC01CD0127
:103FA000601B710B820B930BA50194010E94793069
:103FB000CA01B9010E94EE2E40E050E00E944A1072
:103FC0008AE496E00E94E310892B09F442C08091B4
:103FD0004C0690914D0697FD0196959587956091B9
:103FE0004A0670914B06681B790B072E000C880B54
:103FF000990B0E94F02E20E030E040E251E40E9454
:1040000046316B017C0141E050E00E944A1025E3FB
:104010003AEF4EE85CE3C701B6010E944F2F9B01C7
:10402000AC016091450470914604809147049091E1
:1040300048040E94AB3060934D0470934E0480930B
:104040004F049093500464EF71E080E090E00E9490
:10405000620561E772E0CE0182960E9412128FE53E
:1040600093E00E94C301892B09F45CC31092000104
:1040700010920201109201010E94601964E670E042
:1040800080E090E00E94620561E772E0CE01019657
:104090000E9412120E94181197FD0CC08A871B867D
:1040A00041E050E0BE01665F7F4FCE0101960E9465
:1040B0004C11F0CF8AA19BA10097A9F069817A8168
:1040C0006115710571F04CA15DA12D813E814217F2
:1040D000530738F00E9438368D819E819FA38EA3AE
:1040E00012C00E94DB3489819A819BA38AA38B81B1
:1040F0009C819DA38CA38D819E819FA38EA31A82F8
:1041000019821C821B821E821D82CE0101960E9492
:104110000D12EEA0FFA0E114F10421F0EAA1FBA131
:10412000309721F410929A02EAE9F2E0208128A760
:10413000E114F10429F06701EE24E394F12C03C0AB
:10414000CC24C394D12C61E772E0CE0101960E9489
:1041500012120EA11FA1E016F106C0F4C016D1067E
:1041600008F48601EAA1FBA1E00FF11FD0801082C4
:104170006AA17BA16E0D7F1DCE0101960E94C61122
:104180008AA19BA1FC01E00FF11FD08289819A8155
:10419000009729F00E940F2B6B017C0103C0C12CFA
:1041A000D12C7601CE0101960E940D12E8A58E2F2A
:1041B000EE0F990BAA0BBB0BFC01E356F109E231A0
:1041C000F10508F0A2C2EC5CFF4F0C942034B7015B
:1041D000A601CE0101960E94DD116BEA71E0CE01CD
:1041E0000A960E941212BE016F5F7F4FCE010A969F
:1041F0000E94AD160E94E80CCE010A960E940D1294
:10420000CE0101960E940D12C0920004D0920104CA
:10421000E0920204F092030478C2B701A601CE0135
:1042200001960E94DD1165EB71E0CE010A960E94B5
:104230001212BE016F5F7F4FCE010A960E94AD162B
:104240000E94E80CCE010A960E940D12CE01019642
:104250000E940D12C0920404D0920504E09206045C
:10426000F0920704409215045092160460921704CD
:1042700070921804A701960160E070E08FE793E464
:104280000E9446316093190470931A0480931B04B2
:1042900090931C043AC2B701A601CE0101960E9478
:1042A000DD116FEB71E0CE010A960E941212BE0181
:1042B0006F5F7F4FCE010A960E94AD160E94E80CF8
:1042C000CE010A960E940D12CE0101960E940D1297
:1042D000C0920804D0920904E0920A04F0920B0400
:1042E00014C2B701A601CE0101960E94DD1169EC4E
:1042F00071E0CE010A960E941212BE016F5F7F4FDD
:10430000CE010A960E94AD160E94E80CCE010A96D4
:104310000E940D12CE0101960E940D12C701B60136
:104320000E94B8317093850260938402EEC160915F
:10433000840270918502CE0101960E94C0164091C0
:1043400008045091090460910A0470910B04CE0195
:104350000A960E94DD114091040450910504609179
:10436000060470910704CE0140960E94DD11409131
:104370000004509101046091020470910304CE0185
:1043800046960E94DD1165ED71E0CE014C960E94CB
:104390001212BE016A5E7F4FCE014C960E94AD168E
:1043A0006DE672E00E948C1167ED71E00E948C1145
:1043B000BE01605F7F4F0E94AD166DE672E00E9405
:1043C0008C1169ED71E00E948C11BE01665F7F4F18
:1043D0000E94AD166DE672E00E948C116BED71E0EB
:1043E0000E948C11BE016F5F7F4F0E94AD160E942C
:1043F000E80CCE014C960E940D12CE0146960E940A
:104400000D12CE0140960E940D12CE010A960E9416
:104410000D12CE0101960E940D126CED75E080E048
:1044200090E043C18DED91E00E9496164091730596
:10443000509174056091750570917605CE010196D5
:104440000E94DD1166EF71E0CE010A960E94121201
:10445000BE016F5F7F4FCE010A960E94AD160E948B
:10446000E80CCE010A960E940D12CE0101960E9420
:104470000D12409177055091780560917905709102
:104480007A05CE0101960E94DD1162E072E0CE0154
:104490000A960E941212BE016F5F7F4FCE010A96EC
:1044A0000E94AD160E94E80CCE010A960E940D12E1
:1044B000CE0101960E940D1240917B0550917C0522
:1044C00060917D0570917E05CE0101960E94DD11FF
:1044D0006EE072E0CE010A960E941212BE016F5F7A
:1044E0007F4FCE010A960E94AD160E94E80CCE01C5
:1044F0000A960E940D12CE0101960E940D12409163
:104500007F05509180056091810570918205CE01F3
:1045100001960E94DD116AE172E0CE010A960E94C6
:104520001212BE016F5F7F4FCE010A960E94AD1638
:104530000E94E80CCE010A960E940D12CE0101964F
:104540000E940D124091830550918405609185056C
:1045500070918605CE0101960E94DD1163E272E042
:10456000CE010A960E941212BE016F5F7F4FCE01EC
:104570000A960E94AD160E94E80CCE010A960E948F
:104580000D12CE0101960E940D12409187055091A7
:1045900088056091890570918A05CE0101960E9477
:1045A000DD116CE272E0CE010A960E941212BE0189
:1045B0006F5F7F4FCE010A960E94AD160E94E80CF5
:1045C000CE010A960E940D12CE0101960E940D1294
:1045D0004091430550914405609145057091460511
:1045E000CE0101960E94DD1165E372E0CE010A96CC
:1045F0000E941212BE016F5F7F4FCE010A960E9489
:10460000AD160E94E80CCE010A960E940D12CE0152
:1046100001960E940D124091470550914805609106
:10462000490570914A05CE0101960E94DD1162E4B0
:1046300072E0CE010A960E941212BE016F5F7F4F98
:10464000CE010A960E94AD160E94E80CCE010A9691
:104650000E940D12CE0101960E940D1240914B0551
:1046600050914C0560914D0570914E05CE0101961B
:104670000E94DD116FE472E0CE010A960E941212D0
:10468000BE016F5F7F4FCE010A960E94AD160E9459
:10469000E80CCE010A960E940D12CE0101960E94EE
:1046A0000D1260EA7FE080E090E00E9462052DC07C
:1046B000B701A601CE0101960E94DD116CE572E002
:1046C000CE010A960E941212BE016F5F7F4FCE018B
:1046D0000A960E94AD160E94E80CCE010A960E942E
:1046E0000D12CE0101960E940D1221EE3EE245E62A
:1046F00052E4C701B6010E944F2F60934D0470939E
:104700004E0480934F049093500464EF71E080E076
:1047100090E00E94620581E08093000130920201E6
:1047200020920101CE0182960E940D12EDE0EE2E44
:10473000E1E0FE2EF5E1CF2EF1E0DF2EF701019151
:1047400011917F01E02F1127EE23C9F08091890498
:104750008E17A8F0F894D801A150B04CAA0FBB1F37
:10476000AA0FBB1F80918C0490918D04A80FB91FD4
:104770008D919D910D90BC91A02D789403C080E007
:1047800090E0DC019C01AD01285E334041095109F4
:10479000AEEFB1E00E942F3069317C4F8F4F9F4FB9
:1047A0000CF460C0EE23C9F0809189048E17A8F044
:1047B000F894D801A150B04CAA0FBB1FAA0FBB1F81
:1047C00080918C0490918D04A80FB91F8D919D91BB
:1047D0000D90BC91A02D789403C080E090E0DC01A6
:1047E0009C01AD01285E334041095109AEEFB1E0B3
:1047F0000E942F3068317C4C87409105B4F5EE2340
:10480000C1F0809189048E17A0F0F894F801E1506E
:10481000F04CEE0FFF1FEE0FFF1F80918C04909164
:104820008D04E80FF91F80819181A281B381789472
:1048300003C080E090E0DC019C01AD01285E3340C4
:1048400041095109AEEFB1E00E942F30A50194015A
:104850000E941030DA01C9018F5F9109A109B109E5
:104860009C0105C021E03FEF02C02FEF30E0C801FE
:10487000880F991FA9014B5F5F4FFC01EA57FD4F5D
:104880004B30510518F03183208302C01182108211
:10489000FC01EA57FD4F60817181CE010A960E94AA
:1048A000C016198A188A1B8A1A8A1D8A1C8A4AE02D
:1048B000BE016F5F7F4FC8010E941E2BBE016F5F5C
:1048C0007F4FCE0140960E94C61169E672E0CE018C
:1048D00001960E941212BE01605F7F4FCE010196C9
:1048E0000E94AD1660E272E00E948C11BE01665F0C
:1048F0007F4F0E94AD166CE672E00E948C110E9400
:10490000A416CE0101960E940D12CE0140960E947F
:104910000D12CE010A960E940D12CE14DF0409F08A
:104920000DCF81E792E00E949616609192027091FD
:104930009302072E000C880B990B0E94F02E20E0AA
:1049400030E04FE753E40E94AA306B017C0120E085
:1049500030E0A9010E945332181624F0F7FAF094BF
:10496000F7F8F09420E030E040E251E4C701B601EE
:104970000E94E92E18160CF4A7C060918A0270916B
:104980008B02072E000C880B990B0E94F02E20E062
:1049900030E040E252E40E94463125E33AEF4EE82F
:1049A0005CE30E944F2F6093490470934A04809304
:1049B0004B0490934C040E94EC1680E090E00E941F
:1049C0002F1681112AC06091920270919302072ED6
:1049D000000C880B990B0E94F02E20E030E04FE78E
:1049E00053E40E94AA306B017C0120E030E0A90171
:1049F0000E945332181624F0F7FAF094F7F8F09466
:104A000020E030E040E251E4C701B6010E94E92E07
:104A100018160CF062C00E946019609151047091E8
:104A2000520480915304909154040E94EC1680919A
:104A3000010190910201892B41F410929704109288
:104A400098041092990410929A040E946A0261C913
:104A500009EF1FEF0C94CE1C08EF1FEF0C94CE1C37
:104A600007EF1FEF0C94CE1C06EF1FEF0C94CE1C2B
:104A700005EF1FEF0C94CE1C04EF1FEF0C94CE1C1F
:104A800003EF1FEF0C94CE1C02EF1FEF0C94CE1C13
:104A900001EF1FEF0C94CE1C00EF1FEF0C94CE1C07
:104AA0000FEE1FEF0C94CE1C0EEE1FEF0C94CE1CDD
:104AB0000DEE1FEF0C94CE1C01E010E00C94CE1C08
:104AC0000AEF1FEF0C94CE1C1092490410924A0476
:104AD00010924B0410924C0470CF00918A021091F6
:104AE0008B0210161106ACF4C0908C02D0908D028F
:104AF000E0908802F0908902B8016E197F09A60142
:104B000081E090E00E949118B8016E0D7F1DA60112
:104B100014C0E0908C02F0908D02C0908802D0907A
:104B20008902B8016C0D7D1DA70181E090E00E9413
:104B30009118B8016C197D09A70182E090E00E94EC
:104B400091186BCF8FE491E0909377048093760473
:104B5000809188048230E1F08330B9F0EFEFEE0FFE
:104B6000FF0BE450FC4F1182108280918A049091D7
:104B70008B04009711F00E94DB3480918C0490919B
:104B80008D04009741F00C94DB34E998E1E0E7CF25
:104B9000E898E0E0E4CF0895AF92BF92CF92DF9221
:104BA000EF92FF920F931F93CF93DF9310926203C4
:104BB0001092610388EEC82E83E0D82EE12CF12CF0
:104BC000C0926303D0926403E0926503F09266039F
:104BD0008BE291E09093600380935F0385EC90E01B
:104BE00090936C0380936B0384EC90E090936E033E
:104BF00080936D0380EC90E09093700380936F033B
:104C000081EC90E0909372038093710382EC90E0CA
:104C1000909374038093730386EC90E090937603F3
:104C200080937503109278031092790310927A039F
:104C300010927B031092850610928406C09286061D
:104C4000D0928706E0928806F09289068DE391E083
:104C5000909383068093820689E29BE0A0E0B0E017
:104C600080937E0690937F06A0938006B093810682
:104C7000C1E0D0E0D0937206C0937106D093740661
:104C8000C093730604E610E0109376060093750651
:104C900010927A061092790610927C0610927B068A
:104CA00010927D0662E08FE00E94B0048FE090E0F9
:104CB0009093780680937706D0937406C09373061A
:104CC000D0936506C0936406D0936706C0936606CA
:104CD000109369060093680610926D0610926C0698
:104CE00010926F0610926E061092700662E080E1DC
:104CF0000E94B00480E190E090936B0680936A0676
:104D0000D0936706C0936606D0935806C0935706A3
:104D1000D0935A06C093590610935C0600935B0625
:104D20001092600610925F06109262061092610661
:104D30001092630662E081E10E94B00481E190E09C
:104D400090935E0680935D0683E090E090935A0610
:104D500080935906D0934B06C0934A06D0934D06D4
:104D6000C0934C0610934F0600934E0610925306C4
:104D70001092520610925506109254061092560642
:104D800062E08CE00E94B0048CE090E090935106C9
:104D90008093500690934D0680934C0684E090E0FB
:104DA000909347068093460696E0A92EA092480667
:104DB00027E0B22EB092490661E086E00E94B0047E
:104DC00061E0809149060E94B00480E89AE1A6E083
:104DD000B0E08093AA049093AB04A093AC04B0938A
:104DE000AD0490E89093B50440E452E46FE070E0C5
:104DF0004093B6045093B7046093B8047093B90419
:104E000040EC51EE64EE70E04093BA045093BB0462
:104E10006093BC047093BD044CE55FEE66EA73E4F6
:104E20004093260550932705609328057093290524
:104E300040E050E068EA71E440932A0550932B0566
:104E400060932C0570932D0510933605009335055E
:104E500040E050E060E87FE340937F055093800599
:104E60006093810570938205409383055093840578
:104E70006093850570938605409387055093880558
:104E80006093890570938A0528EE33E030938C0592
:104E900020938B050AE919E929E93EE300938D0582
:104EA00010938E0520938F053093900528E0209372
:104EB00091054093CC055093CD056093CE0570933A
:104EC000CF054093D0055093D1056093D2057093E0
:104ED000D3054093D4055093D5056093D6057093C0
:104EE000D7051092DD051092DC05D093DF05C09345
:104EF000DE051092E1051092E005D093E305C09322
:104F0000E2051092E5051092E4051092E705109273
:104F1000E6051092E9051092E8051092EB05109253
:104F2000EA054FEF5FEF5093ED054093EC0549E73D
:104F300059EE6CE171E44093EE055093EF056093F8
:104F4000F0057093F10545E35AEF6EE87CE340937A
:104F5000F2055093F3056093F4057093F5058BE328
:104F60008093F60583E48093F70581E48093F80548
:104F700089E48093F9058CE18093FA051092FB0592
:104F80002093FC0530E13093FD0588E18093FE0518
:104F90004BE14093FF0510920006209301063093E9
:104FA0000206809303068DE18093040681E08093DE
:104FB000050672E07093060643E04093070664E03E
:104FC0006093080655E050930906A0920A06EAE1AC
:104FD000E0930B0680930C0670930D0640930E062B
:104FE00060930F0650931006A092110659E150935A
:104FF000120657E35093130658E350931406109289
:1050000015061092160650E4509317068093180662
:105010006BE66093190660E260931A0690931B0694
:1050200080931C067CE670931D0610921E06B092BB
:105030001F067AE670932006609321066DE0609368
:10504000220664E26093230665E26093240666E22A
:105050006093250663E66093260667E26093270661
:10506000909328069093290669E660932A06909308
:105070002B0650932C065EE150932D065FE1509372
:105080002E0655E750932F0653E250933006909327
:10509000310690E7909332062093330680933406CE
:1050A00092E79093350694E7909336069CE09093B0
:1050B0003706409338069AE09093390610923A06E4
:1050C00092E190933B0696E190933C069FE090938B
:1050D0003D069BE090933E0680933F06309340064A
:1050E0001092410682E896E09093A9048093A80468
:1050F00088E68093A7041092B3041092970410924C
:1051000098041092990410929A0410929B041092A1
:105110009C0410929D0410929E041092A30410927D
:10512000A4041092A5041092A60482E090E090934B
:105130009404809393048DE090E090939604809380
:10514000950460E082E00E94B00460E080919504E4
:105150000E94B0048FE491E09093770480937604EA
:10516000C0927804D0927904E0927A04F0927B04A1
:1051700080ED97E0A0E0B0E080937C0490937D0404
:10518000A0937E04B0937F048AE090E0A0E0B0E0BA
:105190008093800490938104A0938204B09383044D
:1051A00084E398E0A0E0B0E08093840490938504C9
:1051B000A0938604B093870410928E0410928F04FB
:1051C000109290041092910410929204B09289046B
:1051D0008CE190E00E944334EC0190938B04809327
:1051E0008A048CE190E00E94433490938D04809374
:1051F0008C0420E030E0FE01E20FF31F10821182E8
:1052000012821382FC01E20FF31F108211821282BC
:1052100013822C5F3F4F2C31310569F783E0809377
:10522000880460E00E94B00486E794E09093FF0356
:105230008093FE03809169008C6080936900E99AF5
:105240001092390410923A0410923B0410923C04DC
:1052500010923D0410923E0410923F0410924004BC
:10526000109241041092420410924304109244049C
:1052700080E597E7A6EDBCE3809345049093460450
:10528000A0934704B09348041092490410924A0432
:1052900010924B0410924C0480934D0490934E0452
:1052A000A0934F04B09350041092510410925204F2
:1052B00010925304109254041092550410926204F8
:1052C00010926304109264041092650410926A04B0
:1052D00010926B0410926C0410926D0410926E0484
:1052E00010926F0410927004109271041092720464
:1052F00010927304109274041092750484E090E08C
:10530000909357048093560485E090E0909359045D
:105310008093580488E090E090935B0480935A0453
:1053200089E090E090935D0480935C048AE090E0D3
:1053300090935F0480935E048BE090E0909361040F
:105340008093600461E084E00E94B00461E0809199
:1053500058040E94B00461E080915A040E94B00495
:1053600061E080915C040E94B00461E080915E0481
:105370000E94B00461E0809160040E94B004109229
:105380000C0410920D0410920E0410920F0480E091
:1053900090E0A0E8BFE38093100490931104A093E1
:1053A0001204B093130481E08093140480E090E031
:1053B000AFE7B3E48093150490931604A093170409
:1053C000B093180410921D0410921E0410921F0432
:1053D00010922004109221041092220410922304AF
:1053E000109224041092250410922604109227048F
:1053F0001092280410922D0410922E0410922F0463
:10540000109230041092310410923204109233043E
:10541000109234041092350410923604109237041E
:105420001092380480E090E0A4E3B2E4809300049A
:1054300090930104A0930204B093030480E090E0F1
:10544000A0E8B0E48093040490930504A0930604BC
:10545000B093070480E090E0A8ECB3E480930804E4
:1054600090930904A0930A04B0930B0480E090E0A9
:10547000AFE7B2E48093190490931A04A0931B043D
:10548000B0931C04DF91CF911F910F91FF90EF908B
:10549000DF90CF90BF90AF900895EF920F931F933E
:1054A000CF93DF93E80147FD02C034E001C034E14F
:1054B000042E000C550B57FF03C05195419551091F
:1054C000E32E022F242FAE010E94382BCE01DF9154
:1054D000CF911F910F91EF9008958F929F92AF926D
:1054E000BF92CF92DF92EF92FF92CF93DF93EC01C6
:1054F000688179818A819B8161157105810591059A
:1055000021F464E279ED8BE597E02DE133EF41E0A2
:1055100050E00E94103049015A019B01AC01A7EAFA
:10552000B1E40E942F306B017C01ACEEB4EFA50119
:1055300094010E943D30DC01CB018C0D9D1DAE1D00
:10554000BF1DB7FF03C00197A109B04888839983A5
:10555000AA83BB83BC01CD019F77DF91CF91FF90E0
:10556000EF90DF90CF90BF90AF909F908F90089575
:105570008F929F92AF92BF92CF92DF92EF92FF9263
:1055800060910301709104018091050190910601E1
:10559000611571058105910521F464E279ED8BE5D2
:1055A00097E02DE133EF41E050E00E9410304901D7
:1055B0005A019B01AC01A7EAB1E40E942F306B01B4
:1055C0007C01ACEEB4EFA50194010E943D30DC01FA
:1055D000CB018C0D9D1DAE1DBF1DB7FF03C00197F4
:1055E000A109B0488093030190930401A0930501A1
:1055F000B0930601BC01CD019F77FF90EF90DF9043
:10560000CF90BF90AF909F908F90089560930301CB
:105610007093040180930501909306010895662715
:1056200077270C94922CBB274A3031F4992322F42B
:10563000BDE2909581959F4F0C941F2BBB27FB01DA
:105640005527AA27880F991FAA1FA41710F0A41B7B
:1056500083955051B9F7A05DAA3308F0A95DA193D5
:10566000009779F7B111B1931192CB010C94D92E17
:10567000A9E0B0E0EEE3FBE20C9448306A01122F9F
:10568000B02E2BE3201720F0FF24F394F00E02C07D
:105690002CE3F22E0F2D27E0AE014F5F5F4F0E94EB
:1056A000E02DBC014981842F8970813031F0E1FC0B
:1056B00006C0E0FE06C090E205C09DE203C09BE28A
:1056C00001C090E05E2D507143FF3CC0911102C0BB
:1056D00083E001C084E0811718F4212F281B01C04A
:1056E00020E051110BC0F601822F30E2882319F01F
:1056F00031938150FBCFC20ED11C20E0992329F0B9
:10570000D6019C93F60131966F01C6010396E2FE25
:105710000AC03EE4D6013C9341E411964C931197A4
:1057200012963C9306C03EE6F601308341E6418383
:105730003283FC01322F40E2332309F442C041930B
:105740003150FACF42FF44C0911102C083E001C042
:1057500084E0811718F4212F281B01C020E051118B
:105760000BC0F601822F30E2882319F0319381506B
:10577000FBCFC20ED11C20E0992329F0D6019C93C7
:10578000F60131966F01C6010396E2FE0BC039E4C3
:10579000D6013C933EE411963C93119736E4129661
:1057A0003C9307C039E6F60130833EE6318336E6A6
:1057B0003283FC01322F40E2332319F04193315000
:1057C000FBCFFC01E20FF11D10828EEF9FEFA6C010
:1057D00021E030E0911102C020E030E016161706FB
:1057E0001CF4FB01319602C0E1E0F0E02E0F3F1FF8
:1057F000BB2021F0EB2DF0E0319602C0E0E0F0E0BC
:105800002E0F3F1FE12FF0E02E173F071CF4121B55
:10581000212F01C020E08E2D887159F4F601822FCE
:1058200030E2882319F031938150FBCFC20ED11C96
:1058300020E0992329F0D6019C93F60131966F015F
:1058400051110BC0F601822F90E3882319F0919338
:105850008150FBCFC20ED11C20E00F2D060F9A8184
:10586000342F307144FF03C0913309F401501016F6
:1058700024F4093018F008E001C001E0AB0177FF23
:1058800002C040E050E0FB01E41BF50BA1E0B0E0FA
:10589000AC0FBD1FEA0FFB1F8EE2A82E4B01801A32
:1058A00091080B2D10E01195019511094F3FBFEFA5
:1058B0005B0721F4D601AC9211966D016417750750
:1058C0002CF08416950614F4818101C080E34150C8
:1058D00051093196D60111967D014017510724F0E8
:1058E000D6018C936701E2CF6417750739F49633BC
:1058F00020F4953319F4311101C081E3F60180835E
:10590000F701822F90E2882319F091938150FBCF09
:10591000F701E20FF11D108280E090E02996ECE0A3
:105920000C946430A0E0B0E0E8E9FCE20C9448306C
:10593000EC016B016115710519F0FB019183808306
:105940007E01FFEFEF1AFF0A0881802F90E00E948E
:10595000B82E892B11F0E701F3CF0D3239F47E0117
:1059600082E0E80EF11C098111E008C00B3229F435
:105970007E0192E0E90EF11C098110E0E701219718
:1059800043E050E064E471E0CE010E94C12E892B17
:10599000C1F4239645E050E06FE371E0CE010E9430
:1059A000C12E892B09F42596C114D10419F0F601F2
:1059B000D183C0831111F6C060E070E080E89FE7FA
:1059C000FAC043E050E06CE371E0CE010E94C12ECA
:1059D000892B59F4C114D10409F4E9C0F2E0EF0EA7
:1059E000F11CF601F182E082E2C020E030E0A90182
:1059F000C0E0D0E0F70180EDA82EA00E89E08A1566
:105A000030F1912F9260B92E812F887012FF04C05F
:105A1000811124C0219622C081112197A5E0B0E018
:105A20000E942F30DC01CB01880F991FAA1FBB1FDA
:105A30009C01AD012A0D311D411D511D283989E9F7
:105A40003807480789E1580748F0166006C09EEFFE
:105A5000A9120AC013FD40C01860B12E8FEFE81ADA
:105A6000F80A00811B2DC6CF802F8F7D8534A1F5CC
:105A700080818D3211F4106106C08B3221F0319695
:105A800061E070E004C08181329662E070E0805392
:105A90008A3018F0E61BF70B1FC060E070E060383A
:105AA0009CE079075CF4DB01AA0FBB1FAA0FBB1FA8
:105AB0006A0F7B1F660F771F680F711D3196DF011C
:105AC00011978C9180538A3050F314FF03C0719565
:105AD00061957109C60FD71F11FF08C0C114D10409
